{
  "contractName": "TokenExchange",
  "abi": [
    {
      "inputs": [
        {
          "internalType": "contract VINC",
          "name": "_token1",
          "type": "address"
        },
        {
          "internalType": "contract VINC",
          "name": "_token2",
          "type": "address"
        }
      ],
      "stateMutability": "nonpayable",
      "type": "constructor"
    },
    {
      "anonymous": false,
      "inputs": [
        {
          "indexed": false,
          "internalType": "contract VINC",
          "name": "coin",
          "type": "address"
        },
        {
          "indexed": false,
          "internalType": "address",
          "name": "sender",
          "type": "address"
        },
        {
          "indexed": false,
          "internalType": "address",
          "name": "recipient",
          "type": "address"
        },
        {
          "indexed": false,
          "internalType": "uint256",
          "name": "amount",
          "type": "uint256"
        }
      ],
      "name": "TokensPurchased",
      "type": "event"
    },
    {
      "inputs": [],
      "name": "name",
      "outputs": [
        {
          "internalType": "string",
          "name": "",
          "type": "string"
        }
      ],
      "stateMutability": "view",
      "type": "function"
    },
    {
      "inputs": [],
      "name": "token1",
      "outputs": [
        {
          "internalType": "contract VINC",
          "name": "",
          "type": "address"
        }
      ],
      "stateMutability": "view",
      "type": "function"
    },
    {
      "inputs": [],
      "name": "token2",
      "outputs": [
        {
          "internalType": "contract VINC",
          "name": "",
          "type": "address"
        }
      ],
      "stateMutability": "view",
      "type": "function"
    },
    {
      "inputs": [
        {
          "internalType": "contract VINC",
          "name": "_token1",
          "type": "address"
        },
        {
          "internalType": "contract VINC",
          "name": "_token2",
          "type": "address"
        }
      ],
      "name": "setTokensToSwap",
      "outputs": [],
      "stateMutability": "nonpayable",
      "type": "function"
    },
    {
      "inputs": [
        {
          "internalType": "address",
          "name": "owner1",
          "type": "address"
        },
        {
          "internalType": "uint256",
          "name": "amount1",
          "type": "uint256"
        },
        {
          "internalType": "address",
          "name": "owner2",
          "type": "address"
        },
        {
          "internalType": "uint256",
          "name": "amount2",
          "type": "uint256"
        }
      ],
      "name": "swap",
      "outputs": [],
      "stateMutability": "nonpayable",
      "type": "function"
    }
  ],
  "bytecode": "0x60806040526040518060400160405280601d81526020017f455243323020546f6b656e7320496e7374616e742045786368616e67650000008152506002908051906020019061004f929190610122565b5034801561005c57600080fd5b50604051610f28380380610f288339818101604052604081101561007f57600080fd5b810190808051906020019092919080519060200190929190505050816000806101000a81548173ffffffffffffffffffffffffffffffffffffffff021916908373ffffffffffffffffffffffffffffffffffffffff16021790555080600160006101000a81548173ffffffffffffffffffffffffffffffffffffffff021916908373ffffffffffffffffffffffffffffffffffffffff16021790555050506101cd565b828054600181600116156101000203166002900490600052602060002090601f016020900481019282610158576000855561019f565b82601f1061017157805160ff191683800117855561019f565b8280016001018555821561019f579182015b8281111561019e578251825591602001919060010190610183565b5b5090506101ac91906101b0565b5090565b5b808211156101c95760008160009055506001016101b1565b5090565b610d4c806101dc6000396000f3fe608060405234801561001057600080fd5b50600436106100575760003560e01c806306fdde031461005c57806325be124e146100df5780638a0ccd5614610113578063d21220a71461018b578063d9ddefc7146101bf575b600080fd5b610064610223565b6040518080602001828103825283818151815260200191508051906020019080838360005b838110156100a4578082015181840152602081019050610089565b50505050905090810190601f1680156100d15780820380516001836020036101000a031916815260200191505b509250505060405180910390f35b6100e76102c1565b604051808273ffffffffffffffffffffffffffffffffffffffff16815260200191505060405180910390f35b6101896004803603608081101561012957600080fd5b81019080803573ffffffffffffffffffffffffffffffffffffffff16906020019092919080359060200190929190803573ffffffffffffffffffffffffffffffffffffffff169060200190929190803590602001909291905050506102e7565b005b610193610a94565b604051808273ffffffffffffffffffffffffffffffffffffffff16815260200191505060405180910390f35b610221600480360360408110156101d557600080fd5b81019080803573ffffffffffffffffffffffffffffffffffffffff169060200190929190803573ffffffffffffffffffffffffffffffffffffffff169060200190929190505050610ab8565b005b60028054600181600116156101000203166002900480601f0160208091040260200160405190810160405280929190818152602001828054600181600116156101000203166002900480156102b95780601f1061028e576101008083540402835291602001916102b9565b820191906000526020600020905b81548152906001019060200180831161029c57829003601f168201915b505050505081565b600160009054906101000a900473ffffffffffffffffffffffffffffffffffffffff1681565b8373ffffffffffffffffffffffffffffffffffffffff163373ffffffffffffffffffffffffffffffffffffffff16148061034c57508173ffffffffffffffffffffffffffffffffffffffff163373ffffffffffffffffffffffffffffffffffffffff16145b6103be576040517f08c379a000000000000000000000000000000000000000000000000000000000815260040180806020018281038252600e8152602001807f4e6f7420617574686f72697a656400000000000000000000000000000000000081525060200191505060405180910390fd5b600073ffffffffffffffffffffffffffffffffffffffff168473ffffffffffffffffffffffffffffffffffffffff161415806104275750600073ffffffffffffffffffffffffffffffffffffffff168273ffffffffffffffffffffffffffffffffffffffff1614155b610499576040517f08c379a000000000000000000000000000000000000000000000000000000000815260040180806020018281038252601c8152602001807f5377617070696e6720746f20746865207a65726f20616464726573730000000081525060200191505060405180910390fd5b60008311806104a85750600081115b61051a576040517f08c379a00000000000000000000000000000000000000000000000000000000081526004018080602001828103825260178152602001807f5377617070696e6720746f207a65726f20616d6f756e7400000000000000000081525060200191505060405180910390fd5b8260008054906101000a900473ffffffffffffffffffffffffffffffffffffffff1673ffffffffffffffffffffffffffffffffffffffff1663dd62ed3e86306040518363ffffffff1660e01b8152600401808373ffffffffffffffffffffffffffffffffffffffff1681526020018273ffffffffffffffffffffffffffffffffffffffff1681526020019250505060206040518083038186803b1580156105c057600080fd5b505afa1580156105d4573d6000803e3d6000fd5b505050506040513d60208110156105ea57600080fd5b8101908080519060200190929190505050101561066f576040517f08c379a00000000000000000000000000000000000000000000000000000000081526004018080602001828103825260198152602001807f546f6b656e203120616c6c6f77616e636520746f6f206c6f770000000000000081525060200191505060405180910390fd5b80600160009054906101000a900473ffffffffffffffffffffffffffffffffffffffff1673ffffffffffffffffffffffffffffffffffffffff1663dd62ed3e84306040518363ffffffff1660e01b8152600401808373ffffffffffffffffffffffffffffffffffffffff1681526020018273ffffffffffffffffffffffffffffffffffffffff1681526020019250505060206040518083038186803b15801561071757600080fd5b505afa15801561072b573d6000803e3d6000fd5b505050506040513d602081101561074157600080fd5b810190808051906020019092919050505010156107c6576040517f08c379a00000000000000000000000000000000000000000000000000000000081526004018080602001828103825260198152602001807f546f6b656e203220616c6c6f77616e636520746f6f206c6f770000000000000081525060200191505060405180910390fd5b8260008054906101000a900473ffffffffffffffffffffffffffffffffffffffff1673ffffffffffffffffffffffffffffffffffffffff16637afe450a846040518263ffffffff1660e01b8152600401808273ffffffffffffffffffffffffffffffffffffffff16815260200191505060206040518083038186803b15801561084e57600080fd5b505afa158015610862573d6000803e3d6000fd5b505050506040513d602081101561087857600080fd5b8101908080519060200190929190505050146108fc576040517f08c379a000000000000000000000000000000000000000000000000000000000815260040180806020018281038252601f8152602001807f546f6b656e203120657870656374656420616d6f756e7420746f6f206c6f770081525060200191505060405180910390fd5b80600160009054906101000a900473ffffffffffffffffffffffffffffffffffffffff1673ffffffffffffffffffffffffffffffffffffffff16637afe450a866040518263ffffffff1660e01b8152600401808273ffffffffffffffffffffffffffffffffffffffff16815260200191505060206040518083038186803b15801561098657600080fd5b505afa15801561099a573d6000803e3d6000fd5b505050506040513d60208110156109b057600080fd5b810190808051906020019092919050505014610a34576040517f08c379a000000000000000000000000000000000000000000000000000000000815260040180806020018281038252601f8152602001807f546f6b656e203220657870656374656420616d6f756e7420746f6f206c6f770081525060200191505060405180910390fd5b610a6060008054906101000a900473ffffffffffffffffffffffffffffffffffffffff16858486610b3d565b610a8e600160009054906101000a900473ffffffffffffffffffffffffffffffffffffffff16838684610b3d565b50505050565b60008054906101000a900473ffffffffffffffffffffffffffffffffffffffff1681565b816000806101000a81548173ffffffffffffffffffffffffffffffffffffffff021916908373ffffffffffffffffffffffffffffffffffffffff16021790555080600160006101000a81548173ffffffffffffffffffffffffffffffffffffffff021916908373ffffffffffffffffffffffffffffffffffffffff1602179055505050565b60008473ffffffffffffffffffffffffffffffffffffffff166323b872dd8585856040518463ffffffff1660e01b8152600401808473ffffffffffffffffffffffffffffffffffffffff1681526020018373ffffffffffffffffffffffffffffffffffffffff1681526020018281526020019350505050602060405180830381600087803b158015610bce57600080fd5b505af1158015610be2573d6000803e3d6000fd5b505050506040513d6020811015610bf857600080fd5b8101908080519060200190929190505050905080610c7e576040517f08c379a00000000000000000000000000000000000000000000000000000000081526004018080602001828103825260158152602001807f546f6b656e207472616e73666572206661696c6564000000000000000000000081525060200191505060405180910390fd5b7fd8090840e324257b0b47c1fadac00b95b0f4e9caaaef0fd2514fd1c2bbd0916385858585604051808573ffffffffffffffffffffffffffffffffffffffff1681526020018473ffffffffffffffffffffffffffffffffffffffff1681526020018373ffffffffffffffffffffffffffffffffffffffff16815260200182815260200194505050505060405180910390a1505050505056fea2646970667358221220be1e73fa66bf67d8be673c3e05f30e2eb928941cc29f5875435b22636527a9c564736f6c63430007060033",
  "immutableReferences": {},
  "source": "// SPDX-License-Identifier: MIT\npragma solidity >=0.6.0 <0.8.0;\n\nimport './VINC.sol';\n\ncontract TokenExchange {\n    \n    VINC public token1;\n    VINC public token2;\n    \n    string public name = 'ERC20 Tokens Instant Exchange';\n \n    event TokensPurchased(\n        VINC coin,\n        address sender,\n        address recipient,\n        uint amount\n    );\n    \n    constructor(VINC _token1, VINC _token2) public {\n        token1 = _token1;\n        token2 = _token2;\n    }\n\n    function setTokensToSwap(VINC _token1, VINC _token2) public {\n        token1 = _token1; // your/caller's token\n        token2 = _token2; // second party's token\n    }\n    \n    function _safeTransferFrom(\n        VINC token,\n        address sender,\n        address recipient,\n        uint amount\n     ) private {\n        bool sent = token.transferFrom(sender, recipient, amount);\n        require(sent, \"Token transfer failed\");\n        emit TokensPurchased(token, sender, recipient, amount);\n     }\n     \n     function swap(address owner1, uint amount1, address owner2, uint amount2) external {\n        require(msg.sender == owner1 || msg.sender == owner2, \"Not authorized\");\n        require(owner1 != address(0) || owner2 != address(0), \"Swapping to the zero address\");\n        require(amount1 > 0 || amount2 > 0, \"Swapping to zero amount\");\n        require(\n            token1.allowance(owner1, address(this)) >= amount1,\n            \"Token 1 allowance too low\"\n        );\n        require(\n            token2.allowance(owner2, address(this)) >= amount2,\n            \"Token 2 allowance too low\"\n        );\n        \n        require(\n            token1.expected_receiving_tokens(owner2) == amount1,\n            \"Token 1 expected amount too low\"\n        );\n\n        require(\n            token2.expected_receiving_tokens(owner1) == amount2,\n            \"Token 2 expected amount too low\"\n        );\n        \n        _safeTransferFrom(token1, owner1, owner2, amount1);\n        _safeTransferFrom(token2, owner2, owner1, amount2);\n        \n     }\n       \n}",
  "sourcePath": "/home/aks/Documents/Ethereum/projects/ERC20-Tokens-Swapper/contracts/TokenExchange.sol",
  "compiler": {
    "name": "solc",
    "version": "0.7.6+commit.7338295f.Emscripten.clang"
  },
  "schemaVersion": "3.3.2",
  "updatedAt": "2021-01-14T06:11:03.790Z",
  "networkType": "ethereum",
  "devdoc": {
    "kind": "dev",
    "methods": {},
    "version": 1
  },
  "userdoc": {
    "kind": "user",
    "methods": {},
    "version": 1
  }
}