{
  "contractName": "TokenExchange",
  "abi": [
    {
      "anonymous": false,
      "inputs": [
        {
          "indexed": false,
          "internalType": "contract EDGECOIN",
          "name": "coin",
          "type": "address"
        },
        {
          "indexed": false,
          "internalType": "address",
          "name": "sender",
          "type": "address"
        },
        {
          "indexed": false,
          "internalType": "address",
          "name": "recipient",
          "type": "address"
        },
        {
          "indexed": false,
          "internalType": "uint256",
          "name": "amount",
          "type": "uint256"
        }
      ],
      "name": "TokensPurchased",
      "type": "event"
    },
    {
      "inputs": [],
      "name": "name",
      "outputs": [
        {
          "internalType": "string",
          "name": "",
          "type": "string"
        }
      ],
      "stateMutability": "view",
      "type": "function"
    },
    {
      "inputs": [
        {
          "internalType": "address",
          "name": "owner1",
          "type": "address"
        },
        {
          "internalType": "contract EDGECOIN",
          "name": "token_1",
          "type": "address"
        },
        {
          "internalType": "uint256",
          "name": "amount1",
          "type": "uint256"
        },
        {
          "internalType": "address",
          "name": "owner2",
          "type": "address"
        },
        {
          "internalType": "contract EDGECOIN",
          "name": "token_2",
          "type": "address"
        },
        {
          "internalType": "uint256",
          "name": "amount2",
          "type": "uint256"
        }
      ],
      "name": "swap",
      "outputs": [],
      "stateMutability": "nonpayable",
      "type": "function"
    }
  ],
  "bytecode": "0x60806040526040518060400160405280601d81526020017f455243323020546f6b656e7320496e7374616e742045786368616e67650000008152506000908051906020019061004f929190610062565b5034801561005c57600080fd5b5061010d565b828054600181600116156101000203166002900490600052602060002090601f01602090048101928261009857600085556100df565b82601f106100b157805160ff19168380011785556100df565b828001600101855582156100df579182015b828111156100de5782518255916020019190600101906100c3565b5b5090506100ec91906100f0565b5090565b5b808211156101095760008160009055506001016100f1565b5090565b610d768061011c6000396000f3fe608060405234801561001057600080fd5b50600436106100365760003560e01c806306fdde031461003b5780637ddf3320146100be575b600080fd5b610043610176565b6040518080602001828103825283818151815260200191508051906020019080838360005b83811015610083578082015181840152602081019050610068565b50505050905090810190601f1680156100b05780820380516001836020036101000a031916815260200191505b509250505060405180910390f35b610174600480360360c08110156100d457600080fd5b81019080803573ffffffffffffffffffffffffffffffffffffffff169060200190929190803573ffffffffffffffffffffffffffffffffffffffff16906020019092919080359060200190929190803573ffffffffffffffffffffffffffffffffffffffff169060200190929190803573ffffffffffffffffffffffffffffffffffffffff16906020019092919080359060200190929190505050610214565b005b60008054600181600116156101000203166002900480601f01602080910402602001604051908101604052809291908181526020018280546001816001161561010002031660029004801561020c5780601f106101e15761010080835404028352916020019161020c565b820191906000526020600020905b8154815290600101906020018083116101ef57829003601f168201915b505050505081565b8573ffffffffffffffffffffffffffffffffffffffff163373ffffffffffffffffffffffffffffffffffffffff16148061027957508273ffffffffffffffffffffffffffffffffffffffff163373ffffffffffffffffffffffffffffffffffffffff16145b6102eb576040517f08c379a000000000000000000000000000000000000000000000000000000000815260040180806020018281038252600e8152602001807f4e6f7420617574686f72697a656400000000000000000000000000000000000081525060200191505060405180910390fd5b600073ffffffffffffffffffffffffffffffffffffffff168673ffffffffffffffffffffffffffffffffffffffff161415806103545750600073ffffffffffffffffffffffffffffffffffffffff168373ffffffffffffffffffffffffffffffffffffffff1614155b6103c6576040517f08c379a000000000000000000000000000000000000000000000000000000000815260040180806020018281038252601c8152602001807f5377617070696e6720746f20746865207a65726f20616464726573730000000081525060200191505060405180910390fd5b60008411806103d55750600081115b610447576040517f08c379a00000000000000000000000000000000000000000000000000000000081526004018080602001828103825260178152602001807f5377617070696e6720746f207a65726f20616d6f756e7400000000000000000081525060200191505060405180910390fd5b838573ffffffffffffffffffffffffffffffffffffffff166370a08231886040518263ffffffff1660e01b8152600401808273ffffffffffffffffffffffffffffffffffffffff16815260200191505060206040518083038186803b1580156104af57600080fd5b505afa1580156104c3573d6000803e3d6000fd5b505050506040513d60208110156104d957600080fd5b8101908080519060200190929190505050101561055e576040517f08c379a000000000000000000000000000000000000000000000000000000000815260040180806020018281038252601c8152602001807f496e73756666696369656e7420746f6b656e312062616c616e63652e0000000081525060200191505060405180910390fd5b808273ffffffffffffffffffffffffffffffffffffffff166370a08231856040518263ffffffff1660e01b8152600401808273ffffffffffffffffffffffffffffffffffffffff16815260200191505060206040518083038186803b1580156105c657600080fd5b505afa1580156105da573d6000803e3d6000fd5b505050506040513d60208110156105f057600080fd5b81019080805190602001909291905050501015610675576040517f08c379a000000000000000000000000000000000000000000000000000000000815260040180806020018281038252601c8152602001807f496e73756666696369656e7420746f6b656e322062616c616e63652e0000000081525060200191505060405180910390fd5b838573ffffffffffffffffffffffffffffffffffffffff1663dd62ed3e88306040518363ffffffff1660e01b8152600401808373ffffffffffffffffffffffffffffffffffffffff1681526020018273ffffffffffffffffffffffffffffffffffffffff1681526020019250505060206040518083038186803b1580156106fb57600080fd5b505afa15801561070f573d6000803e3d6000fd5b505050506040513d602081101561072557600080fd5b810190808051906020019092919050505010156107aa576040517f08c379a00000000000000000000000000000000000000000000000000000000081526004018080602001828103825260198152602001807f546f6b656e203120616c6c6f77616e636520746f6f206c6f770000000000000081525060200191505060405180910390fd5b808273ffffffffffffffffffffffffffffffffffffffff1663dd62ed3e85306040518363ffffffff1660e01b8152600401808373ffffffffffffffffffffffffffffffffffffffff1681526020018273ffffffffffffffffffffffffffffffffffffffff1681526020019250505060206040518083038186803b15801561083057600080fd5b505afa158015610844573d6000803e3d6000fd5b505050506040513d602081101561085a57600080fd5b810190808051906020019092919050505010156108df576040517f08c379a00000000000000000000000000000000000000000000000000000000081526004018080602001828103825260198152602001807f546f6b656e203220616c6c6f77616e636520746f6f206c6f770000000000000081525060200191505060405180910390fd5b808273ffffffffffffffffffffffffffffffffffffffff166319d64c9b88866040518363ffffffff1660e01b8152600401808373ffffffffffffffffffffffffffffffffffffffff1681526020018273ffffffffffffffffffffffffffffffffffffffff1681526020019250505060206040518083038186803b15801561096557600080fd5b505afa158015610979573d6000803e3d6000fd5b505050506040513d602081101561098f57600080fd5b810190808051906020019092919050505014610a13576040517f08c379a000000000000000000000000000000000000000000000000000000000815260040180806020018281038252601f8152602001807f546f6b656e203220657870656374656420616d6f756e7420746f6f206c6f770081525060200191505060405180910390fd5b838573ffffffffffffffffffffffffffffffffffffffff166319d64c9b85896040518363ffffffff1660e01b8152600401808373ffffffffffffffffffffffffffffffffffffffff1681526020018273ffffffffffffffffffffffffffffffffffffffff1681526020019250505060206040518083038186803b158015610a9957600080fd5b505afa158015610aad573d6000803e3d6000fd5b505050506040513d6020811015610ac357600080fd5b810190808051906020019092919050505014610b47576040517f08c379a000000000000000000000000000000000000000000000000000000000815260040180806020018281038252601f8152602001807f546f6b656e203120657870656374656420616d6f756e7420746f6f206c6f770081525060200191505060405180910390fd5b610b5385878587610b67565b610b5f82848884610b67565b505050505050565b60008473ffffffffffffffffffffffffffffffffffffffff166323b872dd8585856040518463ffffffff1660e01b8152600401808473ffffffffffffffffffffffffffffffffffffffff1681526020018373ffffffffffffffffffffffffffffffffffffffff1681526020018281526020019350505050602060405180830381600087803b158015610bf857600080fd5b505af1158015610c0c573d6000803e3d6000fd5b505050506040513d6020811015610c2257600080fd5b8101908080519060200190929190505050905080610ca8576040517f08c379a00000000000000000000000000000000000000000000000000000000081526004018080602001828103825260158152602001807f546f6b656e207472616e73666572206661696c6564000000000000000000000081525060200191505060405180910390fd5b7fd8090840e324257b0b47c1fadac00b95b0f4e9caaaef0fd2514fd1c2bbd0916385858585604051808573ffffffffffffffffffffffffffffffffffffffff1681526020018473ffffffffffffffffffffffffffffffffffffffff1681526020018373ffffffffffffffffffffffffffffffffffffffff16815260200182815260200194505050505060405180910390a1505050505056fea26469706673582212206fc237890f2ca8fb770d19efc28ea340d3f1235108efa63b9024903082a311c864736f6c63430007060033",
  "immutableReferences": {},
  "source": "// SPDX-License-Identifier: MIT\npragma solidity >=0.6.0 <0.8.0;\n\nimport './EDGECOIN.sol';\n\ncontract TokenExchange {\n    \n    string public name = 'ERC20 Tokens Instant Exchange';\n \n    event TokensPurchased(\n        EDGECOIN coin,\n        address sender,\n        address recipient,\n        uint amount\n    );\n        \n    function _safeTransferFrom(\n        EDGECOIN token,\n        address sender,\n        address recipient,\n        uint amount\n     ) private {\n        bool sent = token.transferFrom(sender, recipient, amount);\n        require(sent, \"Token transfer failed\");\n        emit TokensPurchased(token, sender, recipient, amount);\n     }\n     \n     function swap(address owner1, EDGECOIN token_1, uint amount1, address owner2, EDGECOIN token_2, uint amount2) external {\n        require(msg.sender == owner1 || msg.sender == owner2, \"Not authorized\");\n        require(owner1 != address(0) || owner2 != address(0), \"Swapping to the zero address\");\n        require(amount1 > 0 || amount2 > 0, \"Swapping to zero amount\");\n        \n        require(\n            EDGECOIN(token_1).balanceOf(owner1) >= amount1,\n            \"Insufficient token1 balance.\"\n        );\n        require(\n            EDGECOIN(token_2).balanceOf(owner2) >= amount2,\n            \"Insufficient token2 balance.\"\n        );\n        \n        require(\n            EDGECOIN(token_1).allowance(owner1, address(this)) >= amount1,\n            \"Token 1 allowance too low\"\n        );\n        require(\n            EDGECOIN(token_2).allowance(owner2, address(this)) >= amount2,\n            \"Token 2 allowance too low\"\n        );\n        \n        require(\n            EDGECOIN(token_2).expected_receiving_tokens(owner1, owner2) == amount2,\n            \"Token 2 expected amount too low\"\n        );\n\n        require(\n            EDGECOIN(token_1).expected_receiving_tokens(owner2, owner1) == amount1,\n            \"Token 1 expected amount too low\"\n        );\n        \n        _safeTransferFrom(token_1, owner1, owner2, amount1);\n        _safeTransferFrom(token_2, owner2, owner1, amount2);\n        \n     }\n       \n}",
  "sourcePath": "/home/aks/Documents/Ethereum/projects/ERC20-Stable-Coin-Generator/contracts/TokenExchange.sol",
  "compiler": {
    "name": "solc",
    "version": "0.7.6+commit.7338295f.Emscripten.clang"
  },
  "schemaVersion": "3.3.2",
  "updatedAt": "2021-02-03T12:04:25.061Z",
  "networkType": "ethereum",
  "devdoc": {
    "kind": "dev",
    "methods": {},
    "version": 1
  },
  "userdoc": {
    "kind": "user",
    "methods": {},
    "version": 1
  }
}